:03000000020800F3
:0C080000787FE4F6D8FD75810F020847F0
:0A09B100C0F9A4B0999282F880907A
:0809BB00020C0618020E0000F8
:10095600AB07D28C308DFDEBFD7C00050FE50F70EB
:1009660002050EFFAE0E120901ED4C6004C28D8029
:02097600E1227C
:03001B0002099A3D
:10099A00C0E0C0D074FD250DF50D74FF350CF50CC3
:0709AA00C28FD0D0D0E03273
:030003000209C42B
:0709C400750C06750D1832D9
:04088C00AB07AA0606
:100890007C037DE81209018F087C037DE8AF03AE7D
:1008A000021209017E007F64CFCDCFCECCCE1209DB
:1008B000018F097C007D64AF03AE021209017E0046
:1008C0007F0ACFCDCFCECCCE1209018F0AAE02AFB8
:1008D000037C007D0A1209018D0BE4FA7401A80261
:1008E000088002C333D8FCF5A074082AF8E6900902
:1008F000B193F5907F281209567590FF0ABA04DC6F
:0109000022D4
:10097800D2AFD2A8D2ABC28A758962758A06858A37
:100988008C758BF6858B8DAF0DAE0C12088CD28EC4
:0209980080F5E8
:10080C00020978E493A3F8E493A34003F68001F281
:10081C0008DFF48029E493A3F85407240CC8C333ED
:10082C00C4540F4420C8834004F456800146F6DFBC
:10083C00E4800B01020408102040809009BBE47E88
:10084C00019360BCA3FF543F30E509541FFEE493B1
:10085C00A360010ECF54C025E060A840B8E493A378
:10086C00FAE493A3F8E493A3C8C582C8CAC583CAA3
:10087C00F0A3C8C582C8CAC583CADFE9DEE780BE5B
:0109C3000033
:10090100BC000BBE0029EF8DF084FFADF022E4CCDA
:10091100F875F008EF2FFFEE33FEEC33FCEE9DECA3
:10092100984005FCEE9DFE0FD5F0E9E4CEFD22EDE9
:10093100F8F5F0EE8420D21CFEADF075F008EF2F33
:10094100FFED33FD4007985006D5F0F222C398FD24
:050951000FD5F0EA22C1
:00000001FF
