:03000000020800F3
:0C080000787FE4F6D8FD758120020847DF
:10097F000608FEFDFBF7EFDFC100C101020E00000C
:04098F00021003E867
:0B091A00740829F8E6F5A0AF11AE103C
:10092500AB07AA06758901758CFC758A18D28C30BF
:100935008DFD050FE50F7002050EFFAE0EAD03AC84
:0D0945000212088CED4C6004C28D80DB2294
:030003000208E10F
:1008E100C0E0C0D0E580540F24F9602424FC6013DB
:1008F10024FE600914701DD201C2008017D201D2FA
:10090100008011E510C313F510E51113F5118004F2
:09091100C200C201D0D0D0E032D6
:10095200D2AFD2A8D28875A02A30011C30000BE495
:10096200F912091A09B906F9800E790512091A193C
:0D097200C3E96480948050F475A01580D90D
:10080C00020952E493A3F8E493A34003F68001F2A7
:10081C0008DFF48029E493A3F85407240CC8C333ED
:10082C00C4540F4420C8834004F456800146F6DFBC
:10083C00E4800B010204081020408090097FE47EC4
:10084C00019360BCA3FF543F30E509541FFEE493B1
:10085C00A360010ECF54C025E060A840B8E493A378
:10086C00FAE493A3F8E493A3C8C582C8CAC583CAA3
:10087C00F0A3C8C582C8CAC583CADFE9DEE780BE5B
:010993000063
:10088C00BC000BBE0029EF8DF084FFADF022E4CC50
:10089C00F875F008EF2FFFEE33FEEC33FCEE9DEC19
:1008AC00984005FCEE9DFE0FD5F0E9E4CEFD22ED5F
:1008BC00F8F5F0EE8420D21CFEADF075F008EF2FA9
:1008CC00FFED33FD4007985006D5F0F222C398FD9A
:0508DC000FD5F0EA2237
:00000001FF
