:03000000020800F3
:0C080000787FE4F6D8FD75810F020847F0
:100A0200C0F9A4B0999282F88090407924301912EA
:040A12000278001056
:0E0A1600040A00000000020E000002080000AA
:1009C400AB07D28C308DFDEBFD7C00050FE50F707D
:1009D40002050EFFAE0E1208FFED4C6004C28D80BE
:0209E400E1220E
:10098E00E4FA7401A802088002C333D8FCF5A0E58E
:10099E00A0B4020A740A2AF8E6900A0C8008740AB7
:1009AE002AF8E6900A0293F5907F021209C4759018
:0509BE00FF0ABA04CDA0
:0109C3002211
:03000300020A25C9
:0D0A2500750D00750C00750B00750A003290
:030013000209548B
:10095400C0E0C0F0C083C082C0D075D000C000C069
:1009640002C003C004C005C006C00712098E30B31C
:10097400FAD007D006D005D004D003D002D000D0DE
:0A098400D0D082D083D0F0D0E03252
:03000B0002088C5C
:10088C00C0E0C0F0C0D075D000C000C004C005C02E
:10089C0006C0070509E50970020508FFAE087C00D3
:1008AC007D281208FFEF64014E7035F508F5090537
:1008BC000DE50DB40A05750D00050CE50CB40A0523
:1008CC00750C00050BE50BB40A05750B00050AE564
:1008DC000AB40A0C750D00750C00750B00750A0036
:1008EC00C28DD007D006D005D004D000D0D0D0F027
:0308FC00D0E03217
:1009E600D2AFD2A8D2AAD2A9C288C28A7589027504
:0C09F6008A06858A8C12098ED28C80F94A
:10080C000209E6E493A3F8E493A34003F68001F213
:10081C0008DFF48029E493A3F85407240CC8C333ED
:10082C00C4540F4420C8834004F456800146F6DFBC
:10083C00E4800B0102040810204080900A16E47E2C
:10084C00019360BCA3FF543F30E509541FFEE493B1
:10085C00A360010ECF54C025E060A840B8E493A378
:10086C00FAE493A3F8E493A3C8C582C8CAC583CAA3
:10087C00F0A3C8C582C8CAC583CADFE9DEE780BE5B
:010A240000D1
:1008FF00BC000BBE0029EF8DF084FFADF022E4CCDD
:10090F00F875F008EF2FFFEE33FEEC33FCEE9DECA5
:10091F00984005FCEE9DFE0FD5F0E9E4CEFD22EDEB
:10092F00F8F5F0EE8420D21CFEADF075F008EF2F35
:10093F00FFED33FD4007985006D5F0F222C398FD26
:05094F000FD5F0EA22C3
:00000001FF
