:03000000020800F3
:0C080000787FE4F6D8FD758108020847F7
:03091B00010800D0
:03000B00020912D5
:09091200B290758CFE758A0C325E
:03001B0002088C4C
:10088C00C0E0C0F0C083C082C0D075D000C000C032
:10089C0001C002C003C004C005C006C0070508E5BE
:1008AC000875F00A1208D5AFF0EF7002B280D007CD
:1008BC00D006D005D004D003D002D001D000D0D0C7
:0908CC00D082D083D0F0D0E032DC
:1008F700758961D2AFD2A9758CFE758A0C758B9CF0
:0B090700858B8DD2ABD28CD28E80FE8F
:10080C000208F7E493A3F8E493A34003F68001F203
:10081C0008DFF48029E493A3F85407240CC8C333ED
:10082C00C4540F4420C8834004F456800146F6DFBC
:10083C00E4800B010204081020408090091BE47E28
:10084C00019360BCA3FF543F30E509541FFEE493B1
:10085C00A360010ECF54C025E060A840B8E493A378
:10086C00FAE493A3F8E493A3C8C582C8CAC583CAA3
:10087C00F0A3C8C582C8CAC583CADFE9DEE780BE5B
:01091E0000D8
:1008D500C2D530F707B2D563F0FF05F030E70CB2AB
:1008E500D5F4048463F0FF05F080018430D502F46B
:0208F5000422DB
:00000001FF
